:100000000C9466000C948B050C9464050C948E0083
:100010000C948E000C948E000C948E000C948E0028
:100020000C948E000C948E000C948E000C948E0018
:100030000C948E000C948E000C948E000C948E0008
:100040000C941A050C948E000C94E8040C94C204D1
:100050000C948E000C948E000C948E000C948E00E8
:100060000C948E000C948E001112131415160A0BAA
:100070000C0D0E0F00000008000201000003040731
:100080000000000000000000000000002500280023
:100090002B0000000000240027002A0004040404B0
:1000A0000404040402020202020203030303030322
:1000B00001020408102040800102040810200102FF
:1000C00004081020000102030405B20511241FBE1C
:1000D000CFEFD4E0DEBFCDBF22E0AEE4B1E001C09F
:1000E0001D92AE31B207E1F711E0A0E0B1E0EEE021
:1000F000F0E102C005900D92AE34B107D9F710E0DF
:10010000C6E6D0E004C02197FE010E94FA07C5367A
:10011000D107C9F70E94F8050C9405080C9400005B
:1001200090E0FC01E055FF4F2491FC01E456FF4FA5
:100130008491882399F090E0880F991FFC01EE5676
:10014000FF4FA591B491FC01E857FF4F8591949121
:100150008FB7F894EC91E22BEC938FBF0895CF9278
:10016000DF92EF92FF920F931F93CF93DF936C0177
:100170007A018B01C0E0D0E0CE15DF0581F0D80117
:100180006D918D01D601ED91FC910190F081E02DF2
:10019000C6010995892B11F02196EECF7E01C7018A
:1001A000DF91CF911F910F91FF90EF90DF90CF9053
:1001B0000895089580E090E00895FC01538D448DEA
:1001C000252F30E0842F90E0821B930B541710F002
:1001D000CF96089501970895FC01918D828D98170F
:1001E00061F0828DDF01A80FB11D5D968C91928D1B
:1001F0009F5F9F73928F90E008958FEF9FEF089518
:10020000FC01918D828D981731F0828DE80FF11DE0
:10021000858D90E008958FEF9FEF0895FC01918DFB
:10022000228D892F90E0805C9F4F821B91098F73F4
:100230009927089589E691E00E940E0121E0892B1B
:1002400009F420E0822F0895FC01848DDF01A80FBE
:10025000B11DA35ABF4F2C91848D90E001968F73EE
:100260009927848FA689B7892C93A089B1898C910D
:10027000837080648C93938D848D981306C002885C
:10028000F389E02D80818F7D80830895EF92FF9226
:100290000F931F93CF93DF93EC0181E0888F9B8DA9
:1002A0008C8D981305C0E889F989808185FD26C069
:1002B000F62E0B8D10E00F5F1F4F0F731127E02EEE
:1002C0008C8DE8120CC00FB607FCFACFE889F989CB
:1002D000808185FFF5CFCE010E942401F1CF8B8D67
:1002E000FE01E80FF11DE35AFF4FF0829FB7F8942B
:1002F0000B8FEA89FB89808180620AC09FB7F894DE
:10030000EE89FF896083E889F98980818370806440
:1003100080839FBF81E090E0DF91CF911F910F918B
:10032000FF90EF900895CF93DF93EC01888D8823A1
:10033000C9F0EA89FB89808185FD05C0A889B98952
:100340008C9186FD0FC00FB607FCF5CF808185FF2D
:10035000F2CFA889B9898C9185FFEDCFCE010E949B
:100360002401E7CFDF91CF91089580E090E0892BC1
:1003700029F00E941A0181110C940000089590E068
:10038000FC01EC58FF4F2491FC01E055FF4F3491E4
:10039000FC01E456FF4FE491EE2309F43CC0222314
:1003A00039F1233091F038F42130A9F0223001F5F1
:1003B00084B58F7D12C0273091F02830A1F0243011
:1003C000B9F4809180008F7D03C0809180008F7789
:1003D000809380000DC084B58F7784BD09C0809163
:1003E000B0008F7703C08091B0008F7D8093B00004
:1003F000F0E0EE0FFF1FE857FF4FA591B4919FB7B4
:10040000F894611104C08C913095382302C0EC91AE
:100410003E2B3C939FBF0895209106023091070226
:1004200040910802509109022417350721F0682FE6
:10043000822F0C94BF0108958330910528F0880F16
:10044000991F04970197F1F70895CF93DF939CB517
:100450009F7D9CBD9CB5937F9CBD9CB59C7F9CBDA6
:100460009DB591609DBDC6E0D2E0682F8A810E9453
:10047000BF018C899D89DF91CF910C941C023FB7FD
:10048000F8948091550190915601A0915701B09137
:10049000580126B5A89B05C02F3F19F00196A11D54
:1004A000B11D3FBFBA2FA92F982F8827820F911D0A
:1004B000A11DB11DBC01CD0143E0660F771F881F50
:1004C000991F4A95D1F708958F929F92AF92BF924C
:1004D000CF92DF92EF92FF926B017C010E943F026C
:1004E0004B015C01C114D104E104F104F1F00E945C
:1004F0003F02DC01CB0188199909AA09BB09883E92
:100500009340A105B10570F321E0C21AD108E108BA
:10051000F10888EE880E83E0981EA11CB11CC1145E
:10052000D104E104F10419F7DDCFFF90EF90DF90E3
:10053000CF90BF90AF909F908F90089508958EBDFB
:1005400000000DB407FEFDCF8EB50895CF93DF9365
:10055000C82FD62F80E00E9425028C2F8F718062D9
:100560000E949F02C82F8D2F0E949F0281E00E944F
:1005700025028C2FDF91CF910895CF93C82F80E073
:100580000E9425028C2F8F710E949F028FEF0E9484
:100590009F02C82F81E00E9425028C2FCF910895E1
:1005A00080E00E94BD0281FD0BC0682F626080E088
:1005B0000E94A60265E070E080E090E00C94640286
:1005C0000895EF92FF920F931F93CF93DF93182F0D
:1005D0007B01C42F80E00E942502812F8F718062F1
:1005E0000E949F02D82F8701CC2339F0F801819116
:1005F0008F010E949F02C150F7CF81E00E94250227
:100600008D2FDF91CF911F910F91FF90EF90089563
:10061000CF93C82F80E00E9425028C2F0E949F025A
:10062000C82F81E00E9425028C2FCF91089581EE82
:100630000C9408030E94D00280E00E94BD02682F43
:10064000616080E00E94A60260E787E00E94A60247
:1006500081E00E940C0280910F02882341F04091BA
:1006600014026FE072E08AE00E94E10212C082E0B0
:100670000E94BD02E4ECF0E0E49121E030E001C032
:10068000220FEA95EAF72095622F682382E00E9404
:10069000A6028DE10E94BD0281FD0C94170308950E
:1006A000009769F0FC0101900020E9F73197AF0154
:1006B000481B590BBC0189E691E00C94AF0080E027
:1006C00090E00895CF93DF930E945003EC0186E100
:1006D00091E00E9450038C0F9D1FDF91CF910895F0
:1006E0000E9400080F931F93CF93DF93CDB7DEB71F
:1006F00060970FB6F894DEBF0FBECDBF80910602A3
:100700009091070220910802309109028217930705
:1007100011F00E94900080910802909109022091AE
:100720000602309107022817390711F00E94900045
:100730001FB7F89480914F01811124C0E6EAF0E0E0
:100740008491EAEBF0E09491E82FF0E0EE0FFF1FC8
:10075000EE56FF4FA591B491EC91E92321F461E0AD
:100760008AE00E94BF018AE00E9490008CB58061FF
:100770008CBD8CB580648CBD8DE00E9490008BE0B8
:100780000E94900080914F018F5F80934F011FBFA7
:1007900080E00E940C0281E00E94250265E070E08A
:1007A00080E090E00E9464026CE080E00E94A6027B
:1007B0006FE584E00E94A60286E00E94BD02877D6C
:1007C000182F10628BE990E0A0E0B0E08093160251
:1007D00090931702A0931802B0931902612F86E03C
:1007E0000E94A60286E00E94BD02181709F4BBC051
:1007F00086E00E94BD02182F86E00E94BD0245E5FA
:1008000050E060E070E0409316025093170260934E
:10081000180270931902682F677D86E00E94A60275
:1008200086E00E94BD0280E00E94250280E50E94D1
:100830009F0283E70E949F0281E00E94250260E000
:100840008DE10E94A60260E08CE10E94A602109257
:100850000E0260E787E00E94A6026CE485E00E9439
:10086000A60282EE0E9408030E9417030E94D00293
:1008700080E00E94BD02682F6E7F80E00E94A60289
:1008800011501E3F08F06DC064E170E080E090E020
:100890000E94640261E085E00E94A60260E081E0BF
:1008A0000E94A6026FEF84E00E94A60286E00E94EA
:1008B000BD02887F682F656086E00E94A60201EE77
:1008C000098310EF1A831B831C831D831E821F82E2
:1008D000188640911402BE016F5F7F4F8AE00E942C
:1008E000E10240911402BE016F5F7F4F80E10E94E0
:1008F000E10260910D0281E10E94A60209871A8738
:100900001B871C871D871E861F86188AEFE6F0E06E
:10091000849140911402BE01675F7F4F0E94E10203
:10092000E9E6F0E0849160910D020E94A60282E067
:100930000E94BD02E5ECF0E0E49161E070E001C0EE
:10094000660FEA95EAF7682B82E00E94A6020E94F1
:100950001A0364E170E080E090E00E94640281E0AC
:1009600006C080E004C081E080930C0241CF609615
:100970000FB6F894DEBF0FBECDBFDF91CF911F91B0
:100980000F9108951F920F920FB60F9211242F937B
:100990003F934F935F936F937F938F939F93AF9307
:1009A000BF93EF93FF9389E691E00E942401FF91AA
:1009B000EF91BF91AF919F918F917F916F915F91D7
:1009C0004F913F912F910F900FBE0F901F90189550
:1009D0001F920F920FB60F9211242F938F939F9314
:1009E000EF93FF93E0917901F0917A018081E0919A
:1009F0007F01F091800182FD12C09081809182017F
:100A00008F5F8F7320918301821751F0E0918201F3
:100A1000F0E0E759FE4F958F8093820101C08081FD
:100A2000FF91EF919F918F912F910F900FBE0F909B
:100A30001F9018951F920F920FB60F9211242F93AB
:100A40003F938F939F93AF93BF9380915101909168
:100A50005201A0915301B09154013091500126E010
:100A6000230F2D3720F40296A11DB11D05C029E8E2
:100A7000230F0396A11DB11D2093500180935101B6
:100A800090935201A0935301B0935401809155016A
:100A900090915601A0915701B09158010196A11D66
:100AA000B11D8093550190935601A0935701B093C7
:100AB0005801BF91AF919F918F913F912F910F90CE
:100AC0000FBE0F901F9018951F920F920FB60F92A6
:100AD00011242F933F934F935F936F937F938F9343
:100AE0009F93AF93BF93EF93FF93E0910201F09137
:100AF00003010995FF91EF91BF91AF919F918F9164
:100B00007F916F915F914F913F912F910F900FBE09
:100B10000F901F9018951F920F920FB60F921124ED
:100B20002F933F934F935F936F937F938F939F93F5
:100B3000AF93BF93EF93FF93E0910001F091010118
:100B40000995FF91EF91BF91AF919F918F917F9107
:100B50006F915F914F913F912F910F900FBE0F902A
:100B60001F901895E9E6F1E01382128288EE93E077
:100B7000A0E0B0E084839583A683B78388E091E00A
:100B80009183808385EC90E09587848784EC90E066
:100B90009787868780EC90E0918B808B81EC90E04A
:100BA000938B828B82EC90E0958B848B86EC90E02B
:100BB000978B868B118E128E138E148EE6E0F2E0E8
:100BC00086E090E09183808387E090E09383828346
:100BD000168280E28783108685E0868785E090E034
:100BE000A0E0B0E0848B958BA68BB78B118608951F
:100BF000CF93DF93CDB7DEB7A1970FB6F894DEBFE2
:100C00000FBECDBF789484B5826084BD84B5816009
:100C100084BD85B5826085BD85B5816085BD8091C7
:100C20006E00816080936E0010928100809181003F
:100C30008260809381008091810081608093810037
:100C4000809180008160809380008091B1008460F9
:100C50008093B1008091B00081608093B00080915A
:100C60007A00846080937A0080917A008260809319
:100C70007A0080917A008E7F80937A0080917A004A
:100C8000806880937A001092C10081E090E0909398
:100C9000600180935F018CE090E09093620180930B
:100CA000610188E790E0909364018093630186E19D
:100CB00090E0909366018093650181E080936701E5
:100CC000E0917901F0917A0182E08083E0917501F1
:100CD000F09176011082E0917701F091780188E03F
:100CE000808310928101E0917D01F0917E0186E088
:100CF0008083E0917B01F0917C0180818061808321
:100D0000E0917B01F0917C01808188608083E0919B
:100D10007B01F0917C01808180688083E0917B0180
:100D2000F0917C0180818F7D80830E9472038823F3
:100D300019F089E191E002C080E291E00E94620333
:100D400080917C00806480937C0080917C008E6028
:100D500080937C006AE070E080E090E00E94640292
:100D600080917A00806880937A0085E291E00E9409
:100D7000620324EB422E2BE2522E21E1622E712CD3
:100D800001E034ECC32E30E0D32EAA24A394B12C7E
:100D900080917A00806480937A0080917A0086FD49
:100DA000FCCF209178008091790030E0382B032E21
:100DB000000C440B550BC301B2010E94B907203F40
:100DC0003A40410551051CF41092670102C000939E
:100DD0006701209163013091640180915D019091E0
:100DE0005E0128173907B1F4209161013091620149
:100DF00080915B0190915C012817390759F480912B
:100E0000670190E02091590130915A0182179307B0
:100E100009F4ACC00E94720364E170E080E090E0ED
:100E20000E94640280E00E940C0280911602909160
:100E300017020E941C028DE10E94BD0281FF08C0C2
:100E400080911602909117020E941C020E941703C3
:100E500080E00E94BD02682F6E7F80E00E94A602A3
:100E600082E00E94BD02F6019491950101C0220F1B
:100E70009A95EAF7682F622B82E00E94A60280E42E
:100E800091E00E9462038091670119A2805D88A3AE
:100E9000CE0180960E94500386E191E00E945003AB
:100EA00010910D02912E1B3010F09AE0992E809136
:100EB0000E02811102C0191901C010E080E00E94E9
:100EC000250280EA0E949F028FE5E82E81E0F82E3D
:100ED0009A94FFEF9F1631F0F70181917F010E94F4
:100EE0009F02F6CF112329F080E00E949F0211504B
:100EF000F9CF81E00E94250281E00E940C028FEF71
:100F00000E9408038073D9F380E00E940C0260E71E
:100F100087E00E94A60284FD0E94170380915F0172
:100F20009091600101969093600180935F010E940F
:100F30001A03809163019091640190935E01809304
:100F40005D01809161019091620190935C018093B9
:100F50005B018091670190E090935A018093590161
:100F600060ED77E080E090E00E9464020E94B501AD
:100F70000FCF052E97FB1EF400940E94D00757FD5B
:100F800007D00E94D80707FC03D04EF40C94D0077A
:100F900050954095309521953F4F4F4F5F4F0895A5
:100FA00090958095709561957F4F8F4F9F4F0895D5
:100FB000A1E21A2EAA1BBB1BFD010DC0AA1FBB1F5D
:100FC000EE1FFF1FA217B307E407F50720F0A21BCF
:100FD000B30BE40BF50B661F771F881F991F1A943C
:100FE00069F760957095809590959B01AC01BD0166
:100FF000CF010895EE0FFF1F0590F491E02D0994A5
:0E10000081E090E0F8940C940508F894FFCF7E
:10100E009E029E02000000004601AF00DD0093012B
:10101E000E01EC0000010D0A004552464F4C4700F0
:10102E004641494C005370616E6E756E67736D6507
:10103E007373756E6720616B74697669657274007F
:0E104E00446174656E2073656E64656E00000B
:00000001FF
