:100000000C9466000C948E000C948E000C948E0060
:100010000C948E000C948E000C9492040C948E0020
:100020000C948E000C948E000C948E000C948E0018
:100030000C948E000C948E000C948E000C948E0008
:100040000C9448040C948E000C94CA020C94A402E4
:100050000C948E000C948E000C948E000C948E00E8
:100060000C948E000C948E000000000025002800E7
:100070002B0000000000240027002A0004040404D0
:100080000404040402020202020203030303030342
:10009000010204081020408001020408102001021F
:1000A0000408102000010203040511121314151690
:1000B0000A0B0C0D0E0F00000008000201000003E7
:1000C00004070000000000000000FA0611241FBE13
:1000D000CFEFD4E0DEBFCDBF22E0ACE6B1E001C09F
:1000E0001D92A938B207E1F711E0A0E0B1E0E8E025
:1000F000F4E102C005900D92AC36B107D9F710E0DB
:10010000C6E6D0E004C02197FE010E94F709C5367B
:10011000D107C9F70E9452070C94020A0C94000000
:10012000ECE7F1E0A089B18982E08C93A485B585E4
:100130001C92A685B78588E08C93108EA489B5891A
:1001400086E08C93A289B3898C9180618C93A2897B
:10015000B3898C9188608C93A289B3898C918068D3
:100160008C930288F389E02D80818F7D80830895B0
:10017000CF92DF92EF92FF920F931F93CF93DF9373
:100180006C017A018B01C0E0D0E0CE15DF0581F073
:10019000D8016D918D01D601ED91FC910190F08116
:1001A000E02DC6010995892B11F02196EECF7E0135
:1001B000C701DF91CF911F910F91FF90EF90DF90DA
:1001C000CF900895089580E090E008958CE791E045
:1001D0000E942D0321E0892B09F420E0822F08954D
:1001E0000E94FD09EF92FF920F931F93CF93DF932D
:1001F000EC0181E0888F9B8D8C8D981305C0E88978
:10020000F989808185FD26C0F62E0B8D10E00F5FE9
:100210001F4F0F731127E02E8C8DE8120CC00FB604
:1002200007FCFACFE889F989808185FFF5CFCE01F7
:100230000E946803F1CF8B8DFE01E80FF11DE35A98
:10024000FF4FF0829FB7F8940B8FEA89FB8980817A
:1002500080620AC09FB7F894EE89FF896083E889BD
:10026000F98980818370806480839FBF81E090E002
:10027000DF91CF911F910F91FF90EF900895CF9351
:10028000DF939CB59F7D9CBD9CB5937F9CBD9CB529
:100290009C7F9CBD9DB591609DBDC9E1D2E0682F5A
:1002A0008A810E94AC038C899D89DF91CF910C9447
:1002B000F903CF93DF93C82FD62F80E00E943F0130
:1002C0008C2F8F7180620E94F004C82F8D2F0E94A6
:1002D000F00481E00E943F018C2FDF91CF910895BF
:1002E000CF93C82F80E00E943F018C2F8F710E9416
:1002F000F0048FEF0E94F004C82F81E00E943F01BC
:100300008C2FCF910895EF92FF920F931F93CF936D
:10031000DF93182F7B01C42F80E00E943F01812FC3
:100320008F7180620E94F004D82F8701CC2339F0AE
:10033000F80181918F010E94F004C150F7CF81E054
:100340000E943F018D2FDF91CF911F910F91FF9060
:10035000EF900895CF93C82F80E00E943F018C2F2B
:100360000E94F004C82F81E00E943F018C2FCF91A2
:10037000089581EE0C94AA012091190230911A027D
:1003800040911B0250911C022417350721F0682F61
:10039000822F0C94AC03089580E00E94700181FDCF
:1003A0000BC0682F626080E00E94590165E070E038
:1003B00080E090E00C94020408950E94CC0180E05B
:1003C0000E947001682F616080E00E94590160E71F
:1003D00087E00E94590181E00E94BC0180912202C5
:1003E000882341F04091270262E272E08AE00E9495
:1003F000830112C082E00E947001E4EAF0E0E4911F
:1004000021E030E001C0220FEA95EAF72095622F43
:10041000682382E00E9459018DE10E94700181FDF4
:100420000C94B901089590E0FC01E057FF4F24912E
:10043000FC01E458FF4F8491882399F090E0880FE5
:10044000991FFC01EE58FF4FA591B491FC01E859AA
:10045000FF4F859194918FB7F894EC91E22BEC9338
:100460008FBF08956115710579F0FB01019000209F
:10047000E9F73197AF01461B570BDC01ED91FC9179
:100480000280F381E02D099480E090E008958F923E
:100490009F92AF92BF92EF92FF920F931F93CF93D1
:1004A000DF93CDB7DEB7A1970FB6F894DEBF0FBECE
:1004B000CDBF7C01FA01CB0119A2223008F42AE059
:1004C0008E010F5D1F4F822E912CA12CB12CBF01EC
:1004D000A50194010E94B609F901CA010150110950
:1004E0006A3014F4605D01C0695CD8016C93232B01
:1004F000242B252B61F7B801C7010E943202A19677
:100500000FB6F894DEBF0FBECDBFDF91CF911F9124
:100510000F91FF90EF90BF90AF909F908F900895B4
:100520000F931F93CF93DF93EC010E9432028C0153
:1005300061E271E0CE010E943202800F911FDF91D3
:10054000CF911F910F9108951F920F920FB60F92A6
:1005500011242F933F934F935F936F937F938F93C8
:100560009F93AF93BF93EF93FF938CE791E00E942B
:100570006803FF91EF91BF91AF919F918F917F9110
:100580006F915F914F913F912F910F900FBE0F9000
:100590001F9018951F920F920FB60F9211242F9350
:1005A0008F939F93EF93FF93E0918C01F0918D01D6
:1005B0008081E0919201F091930182FD12C09081BF
:1005C000809195018F5F8F7320919601821751F072
:1005D000E0919501F0E0E458FE4F958F80939501EE
:1005E00001C08081FF91EF919F918F912F910F908A
:1005F0000FBE0F901F901895FC01538D448D252F31
:1006000030E0842F90E0821B930B541710F0CF96AC
:10061000089501970895FC01918D828D981761F0DE
:10062000828DDF01A80FB11D5D968C91928D9F5F29
:100630009F73928F90E008958FEF9FEF0895FC01D4
:10064000918D828D981731F0828DE80FF11D858D87
:1006500090E008958FEF9FEF0895FC01918D228D1A
:10066000892F90E0805C9F4F821B91098F7399279F
:10067000089580E090E0892B29F00E94E600811126
:100680000C94000008953FB7F894809185029091F2
:100690008602A0918702B091880226B5A89B05C06A
:1006A0002F3F19F00196A11DB11D3FBFBA2FA92FF1
:1006B000982F8827820F911DA11DB11DBC01CD016E
:1006C00043E0660F771F881F991F4A95D1F7089559
:1006D000FC01848DDF01A80FB11DA35ABF4F2C91DF
:1006E000848D90E001968F739927848FA689B789AE
:1006F0002C93A089B1898C91837080648C93938DA5
:10070000848D981306C00288F389E02D80818F7D47
:1007100080830895CF93DF93EC01888D8823C9F0FF
:10072000EA89FB89808185FD05C0A889B9898C91FA
:1007300086FD0FC00FB607FCF5CF808185FFF2CF95
:10074000A889B9898C9185FFEDCFCE010E946803FD
:10075000E7CFDF91CF91089590E0FC01EA54FF4F7D
:100760002491FC01E057FF4F3491FC01E458FF4F06
:10077000E491EE2309F43CC0222339F1233091F0B7
:1007800038F42130A9F0223001F584B58F7D12C0F4
:10079000273091F02830A1F02430B9F48091800006
:1007A0008F7D03C0809180008F77809380000DC083
:1007B00084B58F7784BD09C08091B0008F7703C066
:1007C0008091B0008F7D8093B000F0E0EE0FFF1FAE
:1007D000E859FF4FA591B4919FB7F894611104C0F7
:1007E0008C913095382302C0EC913E2B3C939FBFF7
:1007F00008958330910528F0880F991F0497019779
:10080000F1F708958F929F92AF92BF92CF92DF92AD
:10081000EF92FF926B017C010E9443034B015C014C
:10082000C114D104E104F104F1F00E944303DC019E
:10083000CB0188199909AA09BB09883E9340A105F3
:10084000B10570F321E0C21AD108E108F10888EE81
:10085000880E83E0981EA11CB11CC114D104E104D0
:10086000F10419F7DDCFFF90EF90DF90CF90BF90AC
:10087000AF909F908F9008952FB7F8946091810268
:100880007091820280918302909184022FBF08951B
:100890001F920F920FB60F9211242F933F938F93B5
:1008A0009F93AF93BF938091810290918202A09118
:1008B0008302B09184023091800226E0230F2D370D
:1008C00020F40296A11DB11D05C029E8230F03964F
:1008D000A11DB11D2093800280938102909382021A
:1008E000A0938302B0938402809185029091860246
:1008F000A0918702B09188020196A11DB11D80933D
:10090000850290938602A0938702B0938802BF91DC
:10091000AF919F918F913F912F910F900FBE0F90AC
:100920001F9018951F920F920FB60F9211248F935C
:100930000FB6F894A895809160008861809360005C
:10094000109260000FBE8F910F900FBE0F901F90FE
:1009500018954115510529F4EAE7F0E080818F7779
:1009600080836A307105A9F063FD02C088E001C090
:1009700088E26770682B88E10FB6F894A895809399
:1009800060000FBE60936000E0E6F0E0808180646C
:100990008083232B79F483B7817F846083BFF894AD
:1009A00083B7816083BF7894889583B78E7F83BF38
:1009B00078940EC083B7817F846083BFF89483B737
:1009C000816083BF7894889583B78E7F83BF789446
:1009D000452B29F4EAE7F0E0808180688083089560
:1009E0008EBD00000DB407FEFDCF8EB508950F93A8
:1009F0001F93CF93DF93CDB7DEB760970FB6F89410
:100A0000DEBF0FBECDBF8091190290911A022091D6
:100A10001B0230911C028217930711F00E941302EF
:100A200080911B0290911C022091190230911A02B0
:100A30002817390711F00E9413021FB7F89480910C
:100A40007F02811124C0E6E8F0E08491EAE9F0E059
:100A50009491E82FF0E0EE0FFF1FEE58FF4FA591A5
:100A6000B491EC91E92321F461E08AE00E94AC03A7
:100A70008AE00E9413028CB580618CBD8CB58064C5
:100A80008CBD8DE00E9413028BE00E9413028091C6
:100A90007F028F5F80937F021FBF80E00E94BC01B6
:100AA00081E00E943F0165E070E080E090E00E94FC
:100AB00002046CE080E00E9459016FE584E00E942E
:100AC000590186E00E947001877D182F10628BE922
:100AD00090E0A0E0B0E08093290290932A02A093D6
:100AE0002B02B0932C02612F86E00E94590186E010
:100AF0000E947001181709F4BBC086E00E947001C3
:100B0000182F86E00E94700145E550E060E070E03B
:100B10004093290250932A0260932B0270932C0277
:100B2000682F677D86E00E94590186E00E9470016F
:100B300080E00E943F0180E50E94F00483E70E946C
:100B4000F00481E00E943F0160E08DE10E945901C4
:100B500060E08CE10E9459011092210260E787E079
:100B60000E9459016CE485E00E94590182EE0E94C6
:100B7000AA010E94B9010E94CC0180E00E9470018C
:100B8000682F6E7F80E00E94590111501E3F08F0CF
:100B90006DC064E170E080E090E00E94020461E0DA
:100BA00085E00E94590160E081E00E9459016FEFE9
:100BB00084E00E94590186E00E947001887F682FBE
:100BC000656086E00E94590101EE098310EF1A83E7
:100BD0001B831C831D831E821F821886409127025F
:100BE000BE016F5F7F4F8AE00E9483014091270220
:100BF000BE016F5F7F4F80E10E9483016091200200
:100C000081E10E94590109871A871B871C871D876C
:100C10001E861F86188AE1EBF0E08491409127023E
:100C2000BE01675F7F4F0E948301EBEAF0E0849191
:100C3000609120020E94590182E00E947001E5EA61
:100C4000F0E0E49161E070E001C0660FEA95EAF738
:100C5000682B82E00E9459010E94DD0164E170E08E
:100C600080E090E00E94020481E006C080E004C0C1
:100C700081E080931F0241CF60960FB6F894DEBFEB
:100C80000FBECDBFDF91CF911F910F9108950F93AC
:100C90001F93CF93DF93C82F0E94F70464E170E0A5
:100CA00080E090E00E94020480E00E94BC018091FC
:100CB000290290912A020E94F9038DE10E9470019D
:100CC00081FF08C08091290290912A020E94F903B5
:100CD0000E94B90180E00E947001682F6E7F80E061
:100CE0000E94590182E00E947001E4EAF0E0E49180
:100CF00061E070E001C0660FEA95EAF7682B82E0D8
:100D00000E9459016FE571E08CE791E00E9490022A
:100D1000C0937B0140917A0150E060E070E02AE0EE
:100D20008CE791E00E94470261E271E08CE791E07C
:100D30000E943202C0912002DC2FCB3008F0DAE0B2
:100D400080912102811102C0CD1B01C0C0E080E072
:100D50000E943F0180EA0E94F00402E711E0D150B6
:100D600030F0F80181918F010E94F004F8CFCC237C
:100D700029F080E00E94F004C150F9CF81E00E9488
:100D80003F0181E00E94BC018FEF0E94AA018073A5
:100D9000D9F380E00E94BC0160E787E00E9459011E
:100DA00084FD0E94B90180917201909173010196B6
:100DB00090937301809372010E94DD01809176010E
:100DC00090917701909371018093700180917401EB
:100DD0009091750190936F0180936E0180917A01DB
:100DE00090E090936D0180936C01DF91CF911F9102
:100DF0000F910895ECE7F1E01382128288EE93E000
:100E0000A0E0B0E084839583A683B78384E091E07B
:100E10009183808385EC90E09587848784EC90E0D3
:100E20009787868780EC90E0918B808B81EC90E0B7
:100E3000938B828B82EC90E0958B848B86EC90E098
:100E4000978B868B118E128E138E148EE6E3F2E052
:100E500016821782108611861286138614861586CE
:100E600016861786108A118A128A138A148A158A9E
:100E7000E9E1F2E086E090E09183808387E090E012
:100E800093838283168280E28783108685E086873B
:100E900085E090E0A0E0B0E0848B958BA68BB78BCB
:100EA00011860895789484B5826084BD84B581608C
:100EB00084BD85B5826085BD85B5816085BD809125
:100EC0006E00816080936E0010928100809181009D
:100ED0008260809381008091810081608093810095
:100EE000809180008160809380008091B100846057
:100EF0008093B1008091B00081608093B0008091B8
:100F00007A00846080937A0080917A008260809376
:100F10007A0080917A008E7F80937A0080917A00A7
:100F2000806880937A001092C10010927A02109229
:100F30007B0210927C0210927D0210923802109275
:100F4000390210923A0210923B020E943C046B015B
:100F50007C014B015C0128EB820E2BE0921EA11C50
:100F6000B11C0E943C046C157D058E059F0528F080
:100F700086169706A806B906A0F78CE791E090932D
:100F80007902809378020E9490000E943C04609352
:100F900038027093390280933A0290933B0262E1E7
:100FA00071E080917802909179020E9432020E9451
:100FB0003C046B017C014B015C013AE0830E911C07
:100FC000A11CB11C0E943C046C157D058E059F057B
:100FD00028F086169706A806B906A0F781E0809348
:100FE0004C0221E030E030937301209372012CE039
:100FF00030E0309375012093740128E730E030939E
:1010000077012093760126E130E030937901209337
:10101000780180937A010E9490000E94F70488234F
:1010200019F064E271E002C06BE271E08CE791E0DC
:101030000E94900280917C00806480937C0080916B
:101040007C008E6080937C006AE070E080E090E03D
:101050000E94020480917A00806880937A0060E3A5
:1010600071E08CE791E00E94900284EB882E8BE285
:10107000982E81E1A82EB12C0E943C04672B682B8E
:10108000692B41F40E943C04623071058105910591
:1010900008F40EC10E943C04C0903202D09033028A
:1010A000E0903402F09035026C157D058E059F05A9
:1010B00040F4609332027093330280933402909331
:1010C0003502C0903202D0903302E0903402F090AA
:1010D00035029B01AC012C193D094E095F096901DC
:1010E0007A013AEFC316D104E104F10408F4E0C038
:1010F00060933202709333028093340290933502EE
:1011000084EF91E0A0E0B0E0809344029093450228
:10111000A0934602B09347021092480210924902EF
:1011200010924A0210924B0280913C0290913D0233
:10113000A0913E02B0913F02809340029093410201
:10114000A0934202B09343020E943C0460933C028D
:1011500070933D0280933E0290933F020E943C04B4
:10116000609338027093390280933A0290933B0265
:101170000E943C046B017C016BE471E08091780279
:10118000909179020E9432022AE041E050E060E052
:1011900070E080917802909179020E94470262E5A6
:1011A00071E080917802909179020E9432022AE0E7
:1011B000B701A60180917802909179020E944702BE
:1011C00064E571E080917802909179020E94320288
:1011D00080913C0290913D02A0913E02B0913F026D
:1011E000B701A601481B590B6A0B7B0B2AE08091C3
:1011F0007802909179020E94470264E571E0809143
:101200007802909179020E94320240913C02509102
:101210003D0260913E0270913F02809140029091A8
:101220004102A0914202B0914302481B590B6A0B44
:101230007B0B2AE080917802909179020E9447020C
:1012400066E571E080917802909179020E94320205
:101250000E943C04AB01BC012AE08091780290918D
:1012600079020E94470268E571E0809178029091CE
:1012700079020E9490020E943C046B017C012B01C8
:101280003C0195E0490E511C611C711C0E943C04FC
:101290006C157D058E059F0508F061C00E943C0419
:1012A00060933C0270933D0280933E0290933F0214
:1012B00020E030E040E050E069E070E081E392E05F
:1012C0000E94A90483E70E94470680917A00806407
:1012D00080937A0080917A0086FDFCCF209178007F
:1012E0008091790030E0382B032E000C440B550B15
:1012F000C501B4010E94D80981E0203F3A40410570
:1013000051050CF480E080937A0140917601509170
:10131000770120917001309171014217530799F4C0
:10132000409174015091750120916E0130916F01CF
:101330004217530741F490E020916C0130916D0108
:101340008217930749F085E70E94470660ED77E032
:1013500080E090E00E9402040E9439038DCE461680
:1013600057066806790608F091CF98CFA1E21A2EA9
:10137000AA1BBB1BFD010DC0AA1FBB1FEE1FFF1F39
:10138000A217B307E407F50720F0A21BB30BE40B89
:10139000F50B661F771F881F991F1A9469F76095D0
:1013A0007095809590959B01AC01BD01CF0108958A
:1013B000052E97FB1EF400940E94EF0957FD07D0FD
:1013C0000E94B60907FC03D04EF40C94EF09509527
:1013D0004095309521953F4F4F4F5F4F0895909521
:1013E0008095709561957F4F8F4F9F4F0895EE0FB9
:1013F000FF1F0590F491E02D099481E090E0F894AE
:081400000C94020AF894FFCFDE
:1014080000000000F200B800FC028A032D030B0361
:101418001F03564D4450565F317C315F564D445042
:10142800560D0A004552464F4C47004641494C006C
:101438005370616E6E756E67736D657373756E67E5
:1014480020616B7469766965727400564D44504525
:101458005F003A323A007C005F564D4450450044E4
:0C1468006174656E2073656E64656E0033
:00000001FF
