:100000000C949D000C94C5000C94C5000C94C50084
:100010000C94C5000C94C5000C94C5000C94C5004C
:100020000C94C5000C94C5000C94C5000C94C5003C
:100030000C94C5000C94C5000C94C5000C94C5002C
:100040000C94BD020C94C5000C9404020C94DE01C7
:100050000C94C5000C94C5000C94C5000C94C5000C
:100060000C94C5000C94C5000000000800020100BB
:100070000003040700000000000000000A0B0C0D44
:100080000E0F426174746572696520666173742035
:100090006C656572004261747465726965204F4BCE
:1000A0000042617474657269657374617475733A42
:1000B000200054656D706572617475723A20005746
:1000C000696E647269636874756E673A2000576977
:1000D0006E64676573636877696E6469676B656989
:1000E000743A2000436C69656E204E6F2E3A2000F2
:1000F00000000000250028002B0000000000240064
:1001000027002A0004040404040404040202020276
:1001100002020303030303030102040810204080CA
:10012000010204081020010204081020000102034B
:1001300004051112131415166F0911241FBECFEFF9
:10014000D4E0DEBFCDBF23E0A8E2B2E001C01D9243
:10015000AF33B207E1F712E0A0E0B1E0EEEFF3E178
:1001600002C005900D92A832B107D9F710E0CDE991
:10017000D0E004C02197FE010E94E909CC39D107E3
:10018000C9F70E94F6040C94FD090C940000089530
:1001900080E090E00895FC01538D448D252F30E0E0
:1001A000842F90E0821B930B541710F0CF96089584
:1001B00001970895FC01918D828D981761F0828DD1
:1001C000DF01A80FB11D5D968C91928D9F5F9F738B
:1001D000928F90E008958FEF9FEF0895FC01918D2D
:1001E000828D981731F0828DE80FF11D858D90E09A
:1001F00008958FEF9FEF0895FC01918D228D892F37
:1002000090E0805C9F4F821B91098F73992708951E
:1002100082E492E00E94FC0021E0892B09F420E0B6
:10022000822F0895FC01848DDF01A80FB11DA35A10
:10023000BF4F2C91848D90E001968F739927848F06
:10024000A689B7892C93A089B1898C918370806429
:100250008C93938D848D981306C00288F389E02DCA
:1002600080818F7D80830895EF92FF920F931F937B
:10027000CF93DF93EC0181E0888F9B8D8C8D981359
:1002800005C0E889F989808185FD26C0F62E0B8D91
:1002900010E00F5F1F4F0F731127E02E8C8DE812B7
:1002A0000CC00FB607FCFACFE889F989808185FF79
:1002B000F5CFCE010E941201F1CF8B8DFE01E80F28
:1002C000F11DE35AFF4FF0829FB7F8940B8FEA8934
:1002D000FB89808180620AC09FB7F894EE89FF890C
:1002E0006083E889F98980818370806480839FBFFF
:1002F00081E090E0DF91CF911F910F91FF90EF90FF
:100300000895CF93DF93EC01888D8823C9F0EA89A3
:10031000FB89808185FD05C0A889B9898C9186FDFE
:100320000FC00FB607FCF5CF808185FFF2CFA889FB
:10033000B9898C9185FFEDCFCE010E941201E7CFE4
:10034000DF91CF91089580E090E0892B29F00E9401
:10035000080181110C94000008953FB7F894809132
:100360002D0290912E02A0912F02B091300226B55D
:10037000A89B05C02F3F19F00196A11DB11D3FBFDD
:10038000BA2FA92F982F8827820F911DA11DB11D6B
:10039000BC01CD0143E0660F771F881F991F4A9566
:1003A000D1F708952FB7F8946091290270912A022D
:1003B00080912B0290912C022FBF08951F920F92D3
:1003C0000FB60F9211242F933F934F935F936F9328
:1003D0007F938F939F93AF93BF93EF93FF9382E4A9
:1003E00092E00E941201FF91EF91BF91AF919F9116
:1003F0008F917F916F915F914F913F912F910F90CE
:100400000FBE0F901F9018951F920F920FB60F926C
:1004100011242F938F939F93EF93FF93E0915202B8
:10042000F09153028081E0915802F091590282FDCF
:1004300012C0908180915B028F5F8F7320915C026C
:10044000821751F0E0915B02F0E0EE5BFD4F958F7B
:1004500080935B0201C08081FF91EF919F918F910A
:100460002F910F900FBE0F901F90189590E0FC01F8
:10047000E859FF4F2491FC01E85EFE4F3491FC01E6
:10048000EC5FFE4FE491EE2309F43CC0222339F1E6
:10049000233091F038F42130A9F0223001F584B5F1
:1004A0008F7D12C0273091F02830A1F02430B9F4AC
:1004B000809180008F7D03C0809180008F77809332
:1004C00080000DC084B58F7784BD09C08091B000D5
:1004D0008F7703C08091B0008F7D8093B000F0E0F3
:1004E000EE0FFF1FE051FF4FA591B4919FB7F89415
:1004F000611104C08C913095382302C0EC913E2BE1
:100500003C939FBF08958F929F92AF92BF92CF92DC
:10051000DF92EF92FF926B017C010E94AD014B01D3
:100520005C01C114D104E104F104F1F00E94AD01B9
:10053000DC01CB0188199909AA09BB09883E9340BF
:10054000A105B10570F321E0C21AD108E108F10854
:1005500088EE880E83E0981EA11CB11CC114D10442
:10056000E104F10419F7DDCFFF90EF90DF90CF9019
:10057000BF90AF909F908F9008951F920F920FB6EB
:100580000F9211242F933F938F939F93AF93BF9319
:100590008091290290912A02A0912B02B0912C0205
:1005A0003091280226E0230F2D3720F40296A11D5A
:1005B000B11D05C029E8230F0396A11DB11D20938D
:1005C00028028093290290932A02A0932B02B093D1
:1005D0002C0280912D0290912E02A0912F02B091B9
:1005E00030020196A11DB11D80932D0290932E0221
:1005F000A0932F02B0933002BF91AF919F918F9142
:100600003F912F910F900FBE0F901F9018958EBDA8
:1006100000000DB407FEFDCF8EB50895CF92DF9296
:10062000EF92FF920F931F93CF93DF936C017A01A8
:100630008B01C0E0D0E0CE15DF0581F0D8016D91CF
:100640008D01D601ED91FC910190F081E02DC60164
:100650000995892B11F02196EECF7E01C701DF911C
:10066000CF911F910F91FF90EF90DF90CF90089561
:100670000E94EF09E2E4F2E0A089B18982E08C9364
:10068000A485B5851C92A685B78588E08C93108ECD
:10069000A489B58986E08C93A289B3898C91806105
:1006A0008C93A289B3898C9188608C93A289B38939
:1006B0008C9180688C930288F389E02D80818F7DF6
:1006C000808308959CB59F7D9CBD9CB5937F9CBD08
:1006D0009CB59C7F9CBD9DB591609DBD682F809110
:1006E00029030E94360280913B0390913C038330A2
:1006F000910528F0880F991F04970197F1F7089545
:10070000CF93C82F80E00E9462038C2F0E940703C2
:10071000C82F81E00E9462038C2FCF910895CF9360
:10072000C82F80E00E9462038C2F8F710E94070304
:100730008FEF0E940703C82F81E00E9462038C2F75
:10074000CF910895CF93DF93C82FD62F80E00E94DA
:1007500062038C2F8F7180620E940703C82F8D2F38
:100760000E94070381E00E9462038C2FDF91CF91EA
:100770000895EF92FF920F931F93CF93DF93182F5B
:100780007B01C42F80E00E946203812F8F71806201
:100790000E940703D82F8701CC2339F0F8018191FB
:1007A0008F010E940703C150F7CF81E00E946203CE
:1007B0008D2FDF91CF911F910F91FF90EF900895B2
:1007C00080E00E948F0381FD0BC0682F626080E093
:1007D0000E94A20365E070E080E090E00C94830248
:1007E0000895CF93DF93C82FD0E0FE01EE5CFE4F5B
:1007F000849160912E030E94A20382E00E948F03E5
:10080000FE01E45DFE4FE49161E070E001C0660F1F
:10081000EA95EAF7682B82E0DF91CF910C94A2036E
:1008200090E0FC01E85EFE4F2491FC01EC5FFE4F7E
:100830008491882399F090E0880F991FFC01E6507D
:10084000FF4FA591B491FC01E051FF4F8591949128
:100850008FB7F894EC91E22BEC938FBF08950F9330
:100860001F93CF93DF938C01C0E0D0E0F801EC0F31
:10087000FD1F6491662341F082E492E00E943401FE
:10088000892B11F02196F2CFCE01DF91CF911F91EC
:100890000F9108956115710579F0FB010190002019
:1008A000E9F73197AF01461B570BDC01ED91FC9145
:1008B0000280F381E02D099480E090E008958F920A
:1008C0009F92AF92BF92EF92FF920F931F93CF939D
:1008D000DF93CDB7DEB7A1970FB6F894DEBF0FBE9A
:1008E000CDBF7C01FA01CB0119A2223008F42AE025
:1008F0008E010F5D1F4F822E912CA12CB12CBF01B8
:10090000A50194010E94C709F901CA01015011090A
:100910006A3014F4605D01C0695CD8016C93232BCC
:10092000242B252B61F7B801C7010E944A04A19628
:100930000FB6F894DEBF0FBECDBFDF91CF911F91F0
:100940000F91FF90EF90BF90AF909F908F90089580
:10095000CF92DF92EF92FF92CF93DF936C01990FCA
:10096000EE08FF08F7FE15C06DE282E492E00E94F7
:100970003401EC0144275527BA014C195D096E0971
:100980007F092AE082E492E00E945F04C80FD91F29
:1009900008C02AE0B701A60182E492E00E945F0449
:1009A000EC0161E271E082E492E00E944A048C0F63
:1009B0009D1FDF91CF91FF90EF90DF90CF90089532
:1009C0000F931F93CF93DF93EC010E944A048C0195
:1009D00061E271E0CE010E944A04800F911FDF9115
:1009E000CF911F910F9108950C944A04CF93DF93F8
:1009F000CDB7DEB7E0970FB6F894DEBF0FBECDBF20
:100A0000789484B5826084BD84B5816084BD85B5E9
:100A1000826085BD85B5816085BD80916E008160F5
:100A200080936E001092810080918100826080939B
:100A3000810080918100816080938100809180009D
:100A40008160809380008091B10084608093B100C8
:100A50008091B00081608093B00080917A008460C2
:100A600080937A0080917A00826080937A008091EE
:100A70007A008E7F80937A0080917A0080688093DC
:100A80007A001092C1001092230310922403109256
:100A90002503109226031092E1021092E2021092B6
:100AA000E3021092E4020E94D2016B017C014B012F
:100AB0005C0188EB880E8BE0981EA11CB11C0E9483
:100AC000D2016C157D058E059F0528F086169706C8
:100AD000A806B906A0F782E492E0909322038093DF
:100AE00021030E943A030E94D2016093E1027093B5
:100AF000E2028093E3029093E40262E171E080916C
:100B00002103909122030E94F4040E94D2016B0100
:100B10007C014B015C01EAE08E0E911CA11CB11C12
:100B20000E94D2016C157D058E059F0528F0861662
:100B30009706A806B906A0F781E08093F5020E9407
:100B40003A0364E271E082E492E00E94F40480914E
:100B50002703909128032091290330912A038217BB
:100B6000930711F00E9410048091290390912A03A9
:100B700020912703309128032817390711F00E948C
:100B800010041FB7F89480913102811124C0EEE067
:100B9000F1E08491E2E2F1E09491E82FF0E0EE0FD1
:100BA000FF1FE650FF4FA591B491EC91E92321F48A
:100BB00061E08AE00E9436028AE00E9410048CB54F
:100BC00080618CBD8CB580648CBD8DE00E9410046A
:100BD0008BE00E941004809131028F5F809331027C
:100BE0001FBF809127039091280320912903309102
:100BF0002A038217930719F060E00E94360281E011
:100C00000E94620365E070E080E090E00E94830251
:100C10006CE080E00E94A2036FE584E00E94A203E2
:100C200086E00E948F03877D182F10628BE990E089
:100C3000A0E0B0E08093370390933803A09339038A
:100C4000B0933A03612F86E00E94A20386E00E94DF
:100C50008F03181709F438C386E00E948F03182FFA
:100C600086E00E948F0345E550E060E070E040932D
:100C70003703509338036093390370933A03682F16
:100C8000677D86E00E94A20386E00E948F0380E0D9
:100C90000E94620380E50E94070383E70E94070326
:100CA00081E00E94620360E08DE10E94A20360E0A7
:100CB0008CE10E94A20310922F0360E787E00E945C
:100CC000A2036CE485E00E94A20382EE0E948003EE
:100CD00081EE0E9480030E94E00380E00E948F0367
:100CE000682F6E7F80E00E94A203115064E170E0E3
:100CF00080E090E01E3F28F00E94830261E471E0F2
:100D000029C10E94830268E471E082E492E00E94BB
:100D1000E00481E080933D0261E085E00E94A2034F
:100D200061E571E082E492E00E94F40481E090E0E9
:100D30000E94A80460E081E00E94A2036BE571E0DC
:100D400082E492E00E94F40480E090E00E94A80413
:100D500086E00E948F03887F682F656086E00E948E
:100D6000A20381EE898310EF1A831B831C831D83EA
:100D70001E821F8218864091350350E0BE016F5FCE
:100D80007F4F80E393E00E94F409ECE7F0E0849168
:100D900040913503BE016F5F7F4F0E94B90380E031
:100DA0000E94F10365E671E082E492E00E94E004B3
:100DB00082ED89871A871B871C871D871E861F86E1
:100DC000188AEDE7F0E0849140913503BE01675F3A
:100DD0007F4F0E94B90381E00E94F1036CE771E04C
:100DE00082E492E00E94E00483EC898B1A8B1B8BD7
:100DF0001C8B1D8B1E8A1F8A188EEEE7F0E08491F3
:100E000041E0BE016F5E7F4F0E94B90382E00E9405
:100E1000F10363E971E082E492E00E94E00484EB74
:100E2000898F1A8F1B8F1C8F1D8F1E8E1F8E18A2ED
:100E3000EFE7F0E0849141E0BE01675E7F4F0E94E2
:100E4000B90383E00E94F1036AEA71E082E492E070
:100E50000E94E00485EA89A31AA31BA31CA31DA377
:100E60001EA21FA218A6E0E8F0E0849141E0BE01B6
:100E70006F5D7F4F0E94B90384E00E94F10361EC33
:100E800071E082E492E00E94E00486E989A71AA753
:100E90001BA71CA71DA71EA61FA618AAE1E8F0E025
:100EA000849141E0BE01675D7F4F0E94B90385E0F8
:100EB0000E94F10368ED71E082E492E00E94E00498
:100EC0000E94E00380E00E948F03682F616080E051
:100ED0000E94A20360E787E00E94A203809127039B
:100EE000909128032091290330912A0382179307B8
:100EF00019F061E00E94360280913003882341F0AE
:100F00004091350360E373E08AE00E94B90312C0A8
:100F100082E00E948F03ECE2F1E0E49121E030E016
:100F200001C0220FEA95EAF72095622F682382E03C
:100F30000E94A2038DE10E948F0381FF03C081EE16
:100F40000E94800364E170E080E090E00E948302F0
:100F50006FEE71E082E492E00E94E00434EFC32E71
:100F6000DD24D394E12CF12C0E94D201672B682B55
:100F7000692B41F40E94D20162307105810591050F
:100F800008F409C10E94D20100913E0210913F0273
:100F90002091400230914102601771078207930748
:100FA00040F460933E0270933F028093400290931E
:100FB000410200913E0210913F0220914002309187
:100FC00041024B015C01801A910AA20AB30A950101
:100FD00084010A3F11052105310508F4DCC0609346
:100FE0003E0270933F028093400290934102C09270
:100FF000ED02D092EE02E092EF02F092F002109237
:10100000F1021092F2021092F3021092F402809117
:10101000E5029091E602A091E702B091E802809388
:10102000E9029093EA02A093EB02B093EC020E94D3
:10103000D2016093E5027093E6028093E7029093F9
:10104000E8020E94D2016093E1027093E202809371
:10105000E3029093E4020E94D2014B015C0164E040
:1010600072E080912103909122030E94F4042AE00F
:1010700041E050E060E070E0809121039091220314
:101080000E945F046BE072E0809121039091220343
:101090000E94F4042AE0B501A401809121039091FB
:1010A00022030E945F046DE072E080912103909121
:1010B00022030E94F4048091E5029091E602A0913F
:1010C000E702B091E802B501A401481B590B6A0B75
:1010D0007B0B2AE080912103909122030E945F0400
:1010E0006DE072E080912103909122030E94F4044C
:1010F0004091E5025091E6026091E7027091E802AA
:101100008091E9029091EA02A091EB02B091EC0289
:10111000481B590B6A0B7B0B2AE0809121039091AD
:1011200022030E945F046FE072E08091210390919E
:1011300022030E94F4040E94D201AB01BC012AE008
:1011400080912103909122030E945F0461E172E08B
:1011500080912103909122030E94E0040E94D20119
:101160004B015C012B013C0185E0480E511C611CC8
:10117000711C0E94D201681579058A059B0508F04B
:10118000A7C00E94D2016093E5027093E6028093AB
:10119000E7029093E80280913D02882309F491C010
:1011A00087E10E948F0380FD8CC08FEF0E94800337
:1011B00090E095958795877080933C0210912E035F
:1011C0001A3010F4012F01C00AE080912F03811121
:1011D00002C0101B01C010E080E00E94620381E6A3
:1011E0000E94070382E3A82E82E0B82E015038F057
:1011F0008FEF0E940703F50181935F01F7CF112361
:1012000029F08FEF0E9407031150F9CF81E00E946F
:10121000620360E787E00E94A20361E271E082E47A
:1012200092E00E944A0468E172E082E492E00E9447
:10123000F40480913202909133020E94A80484EE5B
:1012400090E00E942F0480913C0290E001960E9461
:10125000A8048EEC90E00E942F04809134029091BB
:1012600035020E94A8048FEB90E00E942F04809129
:101270003602909137020E94A80482EB90E00E940F
:101280002F0480913802909139020E94A80481EACB
:1012900090E00E942F0480913A02882319F085E99A
:1012A00090E002C082E890E00E942F0461E271E0C9
:1012B00082E492E00E944A0480913A0290E00E9407
:1012C000A8040E94A30150CE81E080932D03C4CCDA
:1012D000461657066806790608F04BCF52CFE2E46F
:1012E000F2E01382128288EE93E0A0E0B0E0848303
:1012F0009583A683B78384E091E09183808385EC16
:1013000090E09587848784EC90E09787868780ECCF
:1013100090E0918B808B81EC90E0938B828B82ECC0
:1013200090E0958B848B86EC90E0978B868B118E6A
:10133000128E138E148EEFEDF2E016821782108655
:101340001186128613861486158616861786108ACD
:10135000118A128A138A148A158AE7E2F3E086E07A
:1013600090E09183808387E090E09383828316826C
:1013700080E28783108685E0868785E090E0A0E0A4
:10138000B0E0848B958BA68BB78B11860895A1E274
:101390001A2EAA1BBB1BFD010DC0AA1FBB1FEE1FEF
:1013A000FF1FA217B307E407F50720F0A21BB30B3A
:1013B000E40BF50B661F771F881F991F1A9469F7B6
:1013C00060957095809590959B01AC01BD01CF0112
:1013D0000895EE0FFF1F0590F491E02D099481E030
:1013E00090E0F8940C94FD09FB01DC0102C001902F
:0E13F0000D9241505040D8F70895F894FFCF69
:1013FE000000000034010E03CB008101FC00DA0076
:10140E00EE00564D4450565F317C315F564D445080
:10141E00560D0A00456D7066C3A46E67657220771F
:10142E00697264206765737461727465742E2E2EF2
:10143E000020204641494C0020204552464F4C4743
:10144E00004368616E6E656C3A20004175746F41A1
:10145E00636B3A20006F70656E52656164696E67EA
:10146E0050697065204E6F2E3A2030006F70656E99
:10147E0052656164696E6750697065204E6F2E3AD1
:10148E002031006F70656E52656164696E675069D8
:10149E007065204E6F2E3A2032006F70656E526569
:1014AE006164696E6750697065204E6F2E3A203305
:1014BE00006F70656E52656164696E675069706524
:1014CE00204E6F2E3A2034006F70656E5265616447
:1014DE00696E6750697065204E6F2E3A2035004553
:1014EE006D7066C3A46E67657220676573746172F2
:1014FE0074657400564D4450455F003A323A007C94
:10150E00005F564D445045004E657565204E616333
:08151E006872696368743A0009
:00000001FF
